{
  "_format": "hh-sol-artifact-1",
  "contractName": "RentingHouseContract",
  "sourceName": "contracts/RentingHouse.sol",
  "abi": [
    {
      "inputs": [],
      "stateMutability": "nonpayable",
      "type": "constructor"
    },
    {
      "anonymous": false,
      "inputs": [
        {
          "indexed": true,
          "internalType": "uint256",
          "name": "agreementId",
          "type": "uint256"
        },
        {
          "indexed": true,
          "internalType": "address",
          "name": "_tenantAddress",
          "type": "address"
        },
        {
          "indexed": true,
          "internalType": "uint256",
          "name": "propId",
          "type": "uint256"
        },
        {
          "indexed": false,
          "internalType": "uint256",
          "name": "leaseStart",
          "type": "uint256"
        },
        {
          "indexed": false,
          "internalType": "uint256",
          "name": "leaseEnd",
          "type": "uint256"
        }
      ],
      "name": "AgreementApproved",
      "type": "event"
    },
    {
      "anonymous": false,
      "inputs": [
        {
          "indexed": true,
          "internalType": "uint256",
          "name": "agreementId",
          "type": "uint256"
        },
        {
          "indexed": true,
          "internalType": "uint256",
          "name": "propId",
          "type": "uint256"
        }
      ],
      "name": "AgreementTerminated",
      "type": "event"
    },
    {
      "anonymous": false,
      "inputs": [
        {
          "indexed": true,
          "internalType": "address",
          "name": "propOwnerWallet",
          "type": "address"
        },
        {
          "indexed": false,
          "internalType": "string",
          "name": "name",
          "type": "string"
        }
      ],
      "name": "OwnerAdded",
      "type": "event"
    },
    {
      "anonymous": false,
      "inputs": [
        {
          "indexed": true,
          "internalType": "uint256",
          "name": "propId",
          "type": "uint256"
        },
        {
          "indexed": false,
          "internalType": "string",
          "name": "_locAddress",
          "type": "string"
        },
        {
          "indexed": false,
          "internalType": "string",
          "name": "comments",
          "type": "string"
        }
      ],
      "name": "PropertyAdded",
      "type": "event"
    },
    {
      "anonymous": false,
      "inputs": [
        {
          "indexed": true,
          "internalType": "uint256",
          "name": "propId",
          "type": "uint256"
        },
        {
          "indexed": false,
          "internalType": "string",
          "name": "_locAddress",
          "type": "string"
        },
        {
          "indexed": false,
          "internalType": "enum RentingHouseContract.Type",
          "name": "_type",
          "type": "uint8"
        },
        {
          "indexed": false,
          "internalType": "string",
          "name": "comments",
          "type": "string"
        }
      ],
      "name": "PropertyMetaDataEdited",
      "type": "event"
    },
    {
      "anonymous": false,
      "inputs": [
        {
          "indexed": true,
          "internalType": "uint256",
          "name": "propId",
          "type": "uint256"
        },
        {
          "indexed": false,
          "internalType": "enum RentingHouseContract.Status",
          "name": "_status",
          "type": "uint8"
        }
      ],
      "name": "PropertyStatusEdited",
      "type": "event"
    },
    {
      "anonymous": false,
      "inputs": [
        {
          "indexed": true,
          "internalType": "uint256",
          "name": "rentedPropId",
          "type": "uint256"
        },
        {
          "indexed": true,
          "internalType": "address",
          "name": "_tenantAddress",
          "type": "address"
        },
        {
          "indexed": false,
          "internalType": "string",
          "name": "name",
          "type": "string"
        }
      ],
      "name": "TenantAdded",
      "type": "event"
    },
    {
      "inputs": [
        {
          "internalType": "string",
          "name": "name",
          "type": "string"
        }
      ],
      "name": "addOwner",
      "outputs": [],
      "stateMutability": "nonpayable",
      "type": "function"
    },
    {
      "inputs": [
        {
          "internalType": "string",
          "name": "_locAddress",
          "type": "string"
        },
        {
          "internalType": "enum RentingHouseContract.Type",
          "name": "_type",
          "type": "uint8"
        },
        {
          "internalType": "string",
          "name": "comments",
          "type": "string"
        }
      ],
      "name": "addProperty",
      "outputs": [],
      "stateMutability": "nonpayable",
      "type": "function"
    },
    {
      "inputs": [
        {
          "internalType": "string",
          "name": "name",
          "type": "string"
        }
      ],
      "name": "addTenant",
      "outputs": [],
      "stateMutability": "nonpayable",
      "type": "function"
    },
    {
      "inputs": [
        {
          "internalType": "uint256",
          "name": "id",
          "type": "uint256"
        },
        {
          "internalType": "uint256",
          "name": "leaseStart",
          "type": "uint256"
        },
        {
          "internalType": "uint256",
          "name": "leaseEnd",
          "type": "uint256"
        }
      ],
      "name": "agreementApproval",
      "outputs": [],
      "stateMutability": "nonpayable",
      "type": "function"
    },
    {
      "inputs": [
        {
          "internalType": "uint256",
          "name": "propId",
          "type": "uint256"
        },
        {
          "internalType": "string",
          "name": "_locAddress",
          "type": "string"
        },
        {
          "internalType": "enum RentingHouseContract.Type",
          "name": "_type",
          "type": "uint8"
        },
        {
          "internalType": "string",
          "name": "comments",
          "type": "string"
        }
      ],
      "name": "editPropertyMetaData",
      "outputs": [],
      "stateMutability": "nonpayable",
      "type": "function"
    },
    {
      "inputs": [
        {
          "internalType": "uint256",
          "name": "propId",
          "type": "uint256"
        },
        {
          "internalType": "enum RentingHouseContract.Status",
          "name": "_status",
          "type": "uint8"
        }
      ],
      "name": "editPropertyStatus",
      "outputs": [],
      "stateMutability": "nonpayable",
      "type": "function"
    },
    {
      "inputs": [],
      "name": "getCurrentCount",
      "outputs": [
        {
          "internalType": "uint256",
          "name": "",
          "type": "uint256"
        }
      ],
      "stateMutability": "view",
      "type": "function"
    },
    {
      "inputs": [],
      "name": "getOwner",
      "outputs": [
        {
          "internalType": "address",
          "name": "",
          "type": "address"
        }
      ],
      "stateMutability": "view",
      "type": "function"
    },
    {
      "inputs": [
        {
          "internalType": "address",
          "name": "propOwnerWallet",
          "type": "address"
        }
      ],
      "name": "getPropOwner",
      "outputs": [
        {
          "components": [
            {
              "internalType": "address",
              "name": "propOwnerWallet",
              "type": "address"
            },
            {
              "internalType": "string",
              "name": "name",
              "type": "string"
            }
          ],
          "internalType": "struct RentingHouseContract.PropOwner",
          "name": "",
          "type": "tuple"
        }
      ],
      "stateMutability": "view",
      "type": "function"
    },
    {
      "inputs": [
        {
          "internalType": "uint256",
          "name": "propId",
          "type": "uint256"
        }
      ],
      "name": "getProperties",
      "outputs": [
        {
          "components": [
            {
              "internalType": "uint256",
              "name": "propId",
              "type": "uint256"
            },
            {
              "internalType": "string",
              "name": "_locAddress",
              "type": "string"
            },
            {
              "internalType": "enum RentingHouseContract.Type",
              "name": "_type",
              "type": "uint8"
            },
            {
              "internalType": "enum RentingHouseContract.Status",
              "name": "_status",
              "type": "uint8"
            },
            {
              "internalType": "string",
              "name": "comments",
              "type": "string"
            }
          ],
          "internalType": "struct RentingHouseContract.Property",
          "name": "",
          "type": "tuple"
        }
      ],
      "stateMutability": "view",
      "type": "function"
    },
    {
      "inputs": [
        {
          "internalType": "enum RentingHouseContract.Status",
          "name": "_status",
          "type": "uint8"
        }
      ],
      "name": "getPropertyByStatus",
      "outputs": [
        {
          "components": [
            {
              "internalType": "uint256",
              "name": "propId",
              "type": "uint256"
            },
            {
              "internalType": "string",
              "name": "_locAddress",
              "type": "string"
            },
            {
              "internalType": "enum RentingHouseContract.Type",
              "name": "_type",
              "type": "uint8"
            },
            {
              "internalType": "enum RentingHouseContract.Status",
              "name": "_status",
              "type": "uint8"
            },
            {
              "internalType": "string",
              "name": "comments",
              "type": "string"
            }
          ],
          "internalType": "struct RentingHouseContract.Property[]",
          "name": "",
          "type": "tuple[]"
        }
      ],
      "stateMutability": "view",
      "type": "function"
    },
    {
      "inputs": [
        {
          "internalType": "address",
          "name": "_newOwner",
          "type": "address"
        }
      ],
      "name": "setOwner",
      "outputs": [],
      "stateMutability": "nonpayable",
      "type": "function"
    },
    {
      "inputs": [
        {
          "internalType": "uint256",
          "name": "id",
          "type": "uint256"
        },
        {
          "internalType": "uint256",
          "name": "propId",
          "type": "uint256"
        }
      ],
      "name": "terminateAgreement",
      "outputs": [],
      "stateMutability": "nonpayable",
      "type": "function"
    }
  ],
  "bytecode": "0x608060405234801561001057600080fd5b5033600160006101000a81548173ffffffffffffffffffffffffffffffffffffffff021916908373ffffffffffffffffffffffffffffffffffffffff160217905550612f01806100616000396000f3fe608060405234801561001057600080fd5b50600436106100cf5760003560e01c8063893d20e81161008c578063d0fd00b111610066578063d0fd00b1146101fa578063d8fd1df91461022a578063dd51babf14610246578063f141bd6014610264576100cf565b8063893d20e8146101a45780638953c2ce146101c2578063cfda7afe146101de576100cf565b806313af4035146100d45780631b8ca217146100f05780631bc89f141461012057806331f85eed1461013c57806345a7c372146101585780634c995a5414610188575b600080fd5b6100ee60048036038101906100e99190611b3e565b610280565b005b61010a60048036038101906101059190611ba1565b610354565b6040516101179190611da9565b60405180910390f35b61013a60048036038101906101359190611e30565b61057e565b005b61015660048036038101906101519190611e7d565b610792565b005b610172600480360381019061016d9190611b3e565b6109bf565b60405161017f9190611f09565b60405180910390f35b6101a2600480360381019061019d9190611f2b565b610b48565b005b6101ac610e52565b6040516101b99190611f8d565b60405180910390f35b6101dc60048036038101906101d79190611fcd565b610e7c565b005b6101f860048036038101906101f39190612099565b610fb4565b005b610214600480360381019061020f91906120d9565b611117565b6040516102219190612245565b60405180910390f35b610244600480360381019061023f9190612267565b61146a565b005b61024e6116fe565b60405161025b919061230b565b60405180910390f35b61027e60048036038101906102799190611e30565b61170f565b005b600160009054906101000a900473ffffffffffffffffffffffffffffffffffffffff1673ffffffffffffffffffffffffffffffffffffffff163373ffffffffffffffffffffffffffffffffffffffff1614610310576040517f08c379a000000000000000000000000000000000000000000000000000000000815260040161030790612383565b60405180910390fd5b80600160006101000a81548173ffffffffffffffffffffffffffffffffffffffff021916908373ffffffffffffffffffffffffffffffffffffffff16021790555050565b61035c611a53565b60006003600084815260200190815260200160002060000154036103b5576040517f08c379a00000000000000000000000000000000000000000000000000000000081526004016103ac906123ef565b60405180910390fd5b600360008381526020019081526020016000206040518060a0016040529081600082015481526020016001820180546103ed9061243e565b80601f01602080910402602001604051908101604052809291908181526020018280546104199061243e565b80156104665780601f1061043b57610100808354040283529160200191610466565b820191906000526020600020905b81548152906001019060200180831161044957829003601f168201915b505050505081526020016002820160009054906101000a900460ff16600181111561049457610493611c6d565b5b60018111156104a6576104a5611c6d565b5b81526020016002820160019054906101000a900460ff1660018111156104cf576104ce611c6d565b5b60018111156104e1576104e0611c6d565b5b81526020016003820180546104f59061243e565b80601f01602080910402602001604051908101604052809291908181526020018280546105219061243e565b801561056e5780601f106105435761010080835404028352916020019161056e565b820191906000526020600020905b81548152906001019060200180831161055157829003601f168201915b5050505050815250509050919050565b610587336118f9565b156105c7576040517f08c379a00000000000000000000000000000000000000000000000000000000081526004016105be906124bb565b60405180910390fd5b6105d16000611994565b60006105dd60006119aa565b905060405180606001604052808281526020013373ffffffffffffffffffffffffffffffffffffffff16815260200184848080601f016020809104026020016040519081016040528093929190818152602001838380828437600081840152601f19601f82011690508083019250505050505050815250600560003373ffffffffffffffffffffffffffffffffffffffff1673ffffffffffffffffffffffffffffffffffffffff1681526020019081526020016000206000820151816000015560208201518160010160006101000a81548173ffffffffffffffffffffffffffffffffffffffff021916908373ffffffffffffffffffffffffffffffffffffffff16021790555060408201518160020190816106f991906126b6565b509050503373ffffffffffffffffffffffffffffffffffffffff16817fc76e2fc929807bd74ed4f61aebb3d98961173973fba1a0180c1c8e4aafee1670600560003373ffffffffffffffffffffffffffffffffffffffff1673ffffffffffffffffffffffffffffffffffffffff168152602001908152602001600020600201604051610785919061280c565b60405180910390a3505050565b600160009054906101000a900473ffffffffffffffffffffffffffffffffffffffff1673ffffffffffffffffffffffffffffffffffffffff163373ffffffffffffffffffffffffffffffffffffffff1614610822576040517f08c379a000000000000000000000000000000000000000000000000000000000815260040161081990612383565b60405180910390fd5b61082b336119b8565b61086a576040517f08c379a00000000000000000000000000000000000000000000000000000000081526004016108619061287a565b60405180910390fd5b60018081111561087d5761087c611c6d565b5b6003600084815260200190815260200160002060020160019054906101000a900460ff1660018111156108b3576108b2611c6d565b5b146108f3576040517f08c379a00000000000000000000000000000000000000000000000000000000081526004016108ea906128e6565b60405180910390fd5b600560003373ffffffffffffffffffffffffffffffffffffffff1673ffffffffffffffffffffffffffffffffffffffff168152602001908152602001600020600001600090556003600082815260200190815260200160002060020160016101000a81549060ff02191690556004600083815260200190815260200160002060008082016000905560018201600090556002820160009055505080827ff995c6ca579b55231b1320970c217693ef6ef98e1d7c7e853d0aabb9e4eb898d60405160405180910390a35050565b6109c7611aa6565b6109d0826119b8565b610a0f576040517f08c379a0000000000000000000000000000000000000000000000000000000008152600401610a0690612952565b60405180910390fd5b600260008373ffffffffffffffffffffffffffffffffffffffff1673ffffffffffffffffffffffffffffffffffffffff1681526020019081526020016000206040518060400160405290816000820160009054906101000a900473ffffffffffffffffffffffffffffffffffffffff1673ffffffffffffffffffffffffffffffffffffffff1673ffffffffffffffffffffffffffffffffffffffff168152602001600182018054610abf9061243e565b80601f0160208091040260200160405190810160405280929190818152602001828054610aeb9061243e565b8015610b385780601f10610b0d57610100808354040283529160200191610b38565b820191906000526020600020905b815481529060010190602001808311610b1b57829003601f168201915b5050505050815250509050919050565b610b51336119b8565b610b90576040517f08c379a0000000000000000000000000000000000000000000000000000000008152600401610b879061287a565b60405180910390fd5b60006001811115610ba457610ba3611c6d565b5b6003600085815260200190815260200160002060020160019054906101000a900460ff166001811115610bda57610bd9611c6d565b5b14610c1a576040517f08c379a0000000000000000000000000000000000000000000000000000000008152600401610c11906129e4565b60405180910390fd5b6000600560003373ffffffffffffffffffffffffffffffffffffffff1673ffffffffffffffffffffffffffffffffffffffff1681526020019081526020016000206000015414610c9f576040517f08c379a0000000000000000000000000000000000000000000000000000000008152600401610c9690612a50565b60405180910390fd5b808210610ce1576040517f08c379a0000000000000000000000000000000000000000000000000000000008152600401610cd890612ae2565b60405180910390fd5b610ceb6000611994565b6000610cf760006119aa565b905083600560003373ffffffffffffffffffffffffffffffffffffffff1673ffffffffffffffffffffffffffffffffffffffff1681526020019081526020016000206000018190555060016003600086815260200190815260200160002060020160016101000a81548160ff02191690836001811115610d7a57610d79611c6d565b5b021790555060405180606001604052808281526020018481526020018381525060046000838152602001908152602001600020600082015181600001556020820151816001015560408201518160020155905050833373ffffffffffffffffffffffffffffffffffffffff16827fb5530d2073ad1df32269f3919c211b38b1c41513e28132119eed5cfc2538562d60046000868152602001908152602001600020600101546004600087815260200190815260200160002060020154604051610e44929190612b02565b60405180910390a450505050565b6000600160009054906101000a900473ffffffffffffffffffffffffffffffffffffffff16905090565b6000600360008881526020019081526020016000206000015403610ed5576040517f08c379a0000000000000000000000000000000000000000000000000000000008152600401610ecc90612b77565b60405180910390fd5b600060036000888152602001908152602001600020905060008686905014610f0c578585826001019182610f0a929190612ba2565b505b838160020160006101000a81548160ff02191690836001811115610f3357610f32611c6d565b5b021790555060008383905014610f58578282826003019182610f56929190612ba2565b505b867fb18cd7c99c9af5cc87b3c4c278c527cc01e2f5c656c590227c171431afe3ba60826001018360020160009054906101000a900460ff1684600301604051610fa393929190612c81565b60405180910390a250505050505050565b600160009054906101000a900473ffffffffffffffffffffffffffffffffffffffff1673ffffffffffffffffffffffffffffffffffffffff163373ffffffffffffffffffffffffffffffffffffffff1614611044576040517f08c379a000000000000000000000000000000000000000000000000000000000815260040161103b90612383565b60405180910390fd5b600060036000848152602001908152602001600020600001540361109d576040517f08c379a000000000000000000000000000000000000000000000000000000000815260040161109490612d38565b60405180910390fd5b806003600084815260200190815260200160002060020160016101000a81548160ff021916908360018111156110d6576110d5611c6d565b5b0217905550817ff9cc405e7e60a1084bce865e46c4fa1e13ea1dfc90a35bb10d8fc8632318aac18260405161110b9190612d67565b60405180910390a25050565b606060008061112660006119aa565b90506000600190505b8181116111a65784600181111561114957611148611c6d565b5b6003600083815260200190815260200160002060020160019054906101000a900460ff16600181111561117f5761117e611c6d565b5b0361119357828061118f90612db1565b9350505b808061119e90612db1565b91505061112f565b5060008267ffffffffffffffff8111156111c3576111c26124db565b5b6040519080825280602002602001820160405280156111fc57816020015b6111e9611a53565b8152602001906001900390816111e15790505b509050600092506000600190505b8281116114615785600181111561122457611223611c6d565b5b6003600083815260200190815260200160002060020160019054906101000a900460ff16600181111561125a57611259611c6d565b5b0361144e57600360008281526020019081526020016000206040518060a0016040529081600082015481526020016001820180546112979061243e565b80601f01602080910402602001604051908101604052809291908181526020018280546112c39061243e565b80156113105780601f106112e557610100808354040283529160200191611310565b820191906000526020600020905b8154815290600101906020018083116112f357829003601f168201915b505050505081526020016002820160009054906101000a900460ff16600181111561133e5761133d611c6d565b5b60018111156113505761134f611c6d565b5b81526020016002820160019054906101000a900460ff16600181111561137957611378611c6d565b5b600181111561138b5761138a611c6d565b5b815260200160038201805461139f9061243e565b80601f01602080910402602001604051908101604052809291908181526020018280546113cb9061243e565b80156114185780601f106113ed57610100808354040283529160200191611418565b820191906000526020600020905b8154815290600101906020018083116113fb57829003601f168201915b50505050508152505082858151811061143457611433612df9565b5b6020026020010181905250838061144a90612db1565b9450505b808061145990612db1565b91505061120a565b50505050919050565b600160009054906101000a900473ffffffffffffffffffffffffffffffffffffffff1673ffffffffffffffffffffffffffffffffffffffff163373ffffffffffffffffffffffffffffffffffffffff16146114fa576040517f08c379a00000000000000000000000000000000000000000000000000000000081526004016114f190612383565b60405180910390fd5b6115046000611994565b600061151060006119aa565b90506040518060a0016040528082815260200187878080601f016020809104026020016040519081016040528093929190818152602001838380828437600081840152601f19601f8201169050808301925050505050505081526020018560018111156115805761157f611c6d565b5b81526020016000600181111561159957611598611c6d565b5b815260200184848080601f016020809104026020016040519081016040528093929190818152602001838380828437600081840152601f19601f820116905080830192505050505050508152506003600083815260200190815260200160002060008201518160000155602082015181600101908161161891906126b6565b5060408201518160020160006101000a81548160ff0219169083600181111561164457611643611c6d565b5b021790555060608201518160020160016101000a81548160ff0219169083600181111561167457611673611c6d565b5b0217905550608082015181600301908161168e91906126b6565b50905050807f3da4c9bfb35ec26c6d648c86e9eb4077c245397191cc803a547fa580e21ff2bb60036000848152602001908152602001600020600101600360008581526020019081526020016000206003016040516116ee929190612e28565b60405180910390a2505050505050565b600061170a60006119aa565b905090565b611718336119b8565b15611758576040517f08c379a000000000000000000000000000000000000000000000000000000000815260040161174f90612eab565b60405180910390fd5b60405180604001604052803373ffffffffffffffffffffffffffffffffffffffff16815260200183838080601f016020809104026020016040519081016040528093929190818152602001838380828437600081840152601f19601f82011690508083019250505050505050815250600260003373ffffffffffffffffffffffffffffffffffffffff1673ffffffffffffffffffffffffffffffffffffffff16815260200190815260200160002060008201518160000160006101000a81548173ffffffffffffffffffffffffffffffffffffffff021916908373ffffffffffffffffffffffffffffffffffffffff160217905550602082015181600101908161186291906126b6565b509050503373ffffffffffffffffffffffffffffffffffffffff167f7adcb4720057d6b9b1d9dc7f206a6dc456794ecdbf145763cc55d76930c3ab86600260003373ffffffffffffffffffffffffffffffffffffffff1673ffffffffffffffffffffffffffffffffffffffff1681526020019081526020016000206001016040516118ed919061280c565b60405180910390a25050565b60008073ffffffffffffffffffffffffffffffffffffffff16600560008473ffffffffffffffffffffffffffffffffffffffff1673ffffffffffffffffffffffffffffffffffffffff16815260200190815260200160002060010160009054906101000a900473ffffffffffffffffffffffffffffffffffffffff1673ffffffffffffffffffffffffffffffffffffffff1614159050919050565b6001816000016000828254019250508190555050565b600081600001549050919050565b60008073ffffffffffffffffffffffffffffffffffffffff16600260008473ffffffffffffffffffffffffffffffffffffffff1673ffffffffffffffffffffffffffffffffffffffff16815260200190815260200160002060000160009054906101000a900473ffffffffffffffffffffffffffffffffffffffff1673ffffffffffffffffffffffffffffffffffffffff1614159050919050565b6040518060a00160405280600081526020016060815260200160006001811115611a8057611a7f611c6d565b5b815260200160006001811115611a9957611a98611c6d565b5b8152602001606081525090565b6040518060400160405280600073ffffffffffffffffffffffffffffffffffffffff168152602001606081525090565b600080fd5b600080fd5b600073ffffffffffffffffffffffffffffffffffffffff82169050919050565b6000611b0b82611ae0565b9050919050565b611b1b81611b00565b8114611b2657600080fd5b50565b600081359050611b3881611b12565b92915050565b600060208284031215611b5457611b53611ad6565b5b6000611b6284828501611b29565b91505092915050565b6000819050919050565b611b7e81611b6b565b8114611b8957600080fd5b50565b600081359050611b9b81611b75565b92915050565b600060208284031215611bb757611bb6611ad6565b5b6000611bc584828501611b8c565b91505092915050565b611bd781611b6b565b82525050565b600081519050919050565b600082825260208201905092915050565b60005b83811015611c17578082015181840152602081019050611bfc565b60008484015250505050565b6000601f19601f8301169050919050565b6000611c3f82611bdd565b611c498185611be8565b9350611c59818560208601611bf9565b611c6281611c23565b840191505092915050565b7f4e487b7100000000000000000000000000000000000000000000000000000000600052602160045260246000fd5b60028110611cad57611cac611c6d565b5b50565b6000819050611cbe82611c9c565b919050565b6000611cce82611cb0565b9050919050565b611cde81611cc3565b82525050565b60028110611cf557611cf4611c6d565b5b50565b6000819050611d0682611ce4565b919050565b6000611d1682611cf8565b9050919050565b611d2681611d0b565b82525050565b600060a083016000830151611d446000860182611bce565b5060208301518482036020860152611d5c8282611c34565b9150506040830151611d716040860182611cd5565b506060830151611d846060860182611d1d565b5060808301518482036080860152611d9c8282611c34565b9150508091505092915050565b60006020820190508181036000830152611dc38184611d2c565b905092915050565b600080fd5b600080fd5b600080fd5b60008083601f840112611df057611def611dcb565b5b8235905067ffffffffffffffff811115611e0d57611e0c611dd0565b5b602083019150836001820283011115611e2957611e28611dd5565b5b9250929050565b60008060208385031215611e4757611e46611ad6565b5b600083013567ffffffffffffffff811115611e6557611e64611adb565b5b611e7185828601611dda565b92509250509250929050565b60008060408385031215611e9457611e93611ad6565b5b6000611ea285828601611b8c565b9250506020611eb385828601611b8c565b9150509250929050565b611ec681611b00565b82525050565b6000604083016000830151611ee46000860182611ebd565b5060208301518482036020860152611efc8282611c34565b9150508091505092915050565b60006020820190508181036000830152611f238184611ecc565b905092915050565b600080600060608486031215611f4457611f43611ad6565b5b6000611f5286828701611b8c565b9350506020611f6386828701611b8c565b9250506040611f7486828701611b8c565b9150509250925092565b611f8781611b00565b82525050565b6000602082019050611fa26000830184611f7e565b92915050565b60028110611fb557600080fd5b50565b600081359050611fc781611fa8565b92915050565b60008060008060008060808789031215611fea57611fe9611ad6565b5b6000611ff889828a01611b8c565b965050602087013567ffffffffffffffff81111561201957612018611adb565b5b61202589828a01611dda565b9550955050604061203889828a01611fb8565b935050606087013567ffffffffffffffff81111561205957612058611adb565b5b61206589828a01611dda565b92509250509295509295509295565b6002811061208157600080fd5b50565b60008135905061209381612074565b92915050565b600080604083850312156120b0576120af611ad6565b5b60006120be85828601611b8c565b92505060206120cf85828601612084565b9150509250929050565b6000602082840312156120ef576120ee611ad6565b5b60006120fd84828501612084565b91505092915050565b600081519050919050565b600082825260208201905092915050565b6000819050602082019050919050565b600060a08301600083015161214a6000860182611bce565b50602083015184820360208601526121628282611c34565b91505060408301516121776040860182611cd5565b50606083015161218a6060860182611d1d565b50608083015184820360808601526121a28282611c34565b9150508091505092915050565b60006121bb8383612132565b905092915050565b6000602082019050919050565b60006121db82612106565b6121e58185612111565b9350836020820285016121f785612122565b8060005b85811015612233578484038952815161221485826121af565b945061221f836121c3565b925060208a019950506001810190506121fb565b50829750879550505050505092915050565b6000602082019050818103600083015261225f81846121d0565b905092915050565b60008060008060006060868803121561228357612282611ad6565b5b600086013567ffffffffffffffff8111156122a1576122a0611adb565b5b6122ad88828901611dda565b955095505060206122c088828901611fb8565b935050604086013567ffffffffffffffff8111156122e1576122e0611adb565b5b6122ed88828901611dda565b92509250509295509295909350565b61230581611b6b565b82525050565b600060208201905061232060008301846122fc565b92915050565b600082825260208201905092915050565b7f4f6e6c79206f776e65722063616e2063616c6c20746869732066756e632e0000600082015250565b600061236d601e83612326565b915061237882612337565b602082019050919050565b6000602082019050818103600083015261239c81612360565b9050919050565b7f50726f706572747920646f6573206e6f74206578697374000000000000000000600082015250565b60006123d9601783612326565b91506123e4826123a3565b602082019050919050565b60006020820190508181036000830152612408816123cc565b9050919050565b7f4e487b7100000000000000000000000000000000000000000000000000000000600052602260045260246000fd5b6000600282049050600182168061245657607f821691505b6020821081036124695761246861240f565b5b50919050565b7f54656e617420616c726561647920657869737473000000000000000000000000600082015250565b60006124a5601483612326565b91506124b08261246f565b602082019050919050565b600060208201905081810360008301526124d481612498565b9050919050565b7f4e487b7100000000000000000000000000000000000000000000000000000000600052604160045260246000fd5b60008190508160005260206000209050919050565b60006020601f8301049050919050565b600082821b905092915050565b60006008830261256c7fffffffffffffffffffffffffffffffffffffffffffffffffffffffffffffffff8261252f565b612576868361252f565b95508019841693508086168417925050509392505050565b6000819050919050565b60006125b36125ae6125a984611b6b565b61258e565b611b6b565b9050919050565b6000819050919050565b6125cd83612598565b6125e16125d9826125ba565b84845461253c565b825550505050565b600090565b6125f66125e9565b6126018184846125c4565b505050565b5b818110156126255761261a6000826125ee565b600181019050612607565b5050565b601f82111561266a5761263b8161250a565b6126448461251f565b81016020851015612653578190505b61266761265f8561251f565b830182612606565b50505b505050565b600082821c905092915050565b600061268d6000198460080261266f565b1980831691505092915050565b60006126a6838361267c565b9150826002028217905092915050565b6126bf82611bdd565b67ffffffffffffffff8111156126d8576126d76124db565b5b6126e2825461243e565b6126ed828285612629565b600060209050601f831160018114612720576000841561270e578287015190505b612718858261269a565b865550612780565b601f19841661272e8661250a565b60005b8281101561275657848901518255600182019150602085019450602081019050612731565b86831015612773578489015161276f601f89168261267c565b8355505b6001600288020188555050505b505050505050565b600081546127958161243e565b61279f8186612326565b945060018216600081146127ba57600181146127d057612803565b60ff198316865281151560200286019350612803565b6127d98561250a565b60005b838110156127fb578154818901526001820191506020810190506127dc565b808801955050505b50505092915050565b600060208201905081810360008301526128268184612788565b905092915050565b7f4f776e657220646f6573206e6f74206578697374000000000000000000000000600082015250565b6000612864601483612326565b915061286f8261282e565b602082019050919050565b6000602082019050818103600083015261289381612857565b9050919050565b7f50726f706572747920697320616c7265616479206f6e2072656e740000000000600082015250565b60006128d0601b83612326565b91506128db8261289a565b602082019050919050565b600060208201905081810360008301526128ff816128c3565b9050919050565b7f50726f7065727479204f776e657220646f6573206e6f74206578697374000000600082015250565b600061293c601d83612326565b915061294782612906565b602082019050919050565b6000602082019050818103600083015261296b8161292f565b9050919050565b7f50726f7065727479206973206e6f7420617661696c61626c6520666f7220726560008201527f6e74206e6f770000000000000000000000000000000000000000000000000000602082015250565b60006129ce602683612326565b91506129d982612972565b604082019050919050565b600060208201905081810360008301526129fd816129c1565b9050919050565b7f54656e616e742068617320616c72656164792072656e74656420612070726f70600082015250565b6000612a3a602083612326565b9150612a4582612a04565b602082019050919050565b60006020820190508181036000830152612a6981612a2d565b9050919050565b7f456e64206461746520646f6573206e6f74206561726c79207468656e2053746160008201527f7274206461746500000000000000000000000000000000000000000000000000602082015250565b6000612acc602783612326565b9150612ad782612a70565b604082019050919050565b60006020820190508181036000830152612afb81612abf565b9050919050565b6000604082019050612b1760008301856122fc565b612b2460208301846122fc565b9392505050565b7f50726f706572747920676976656e20494420646f6573206e6f74206578697374600082015250565b6000612b61602083612326565b9150612b6c82612b2b565b602082019050919050565b60006020820190508181036000830152612b9081612b54565b9050919050565b600082905092915050565b612bac8383612b97565b67ffffffffffffffff811115612bc557612bc46124db565b5b612bcf825461243e565b612bda828285612629565b6000601f831160018114612c095760008415612bf7578287013590505b612c01858261269a565b865550612c69565b601f198416612c178661250a565b60005b82811015612c3f57848901358255600182019150602085019450602081019050612c1a565b86831015612c5c5784890135612c58601f89168261267c565b8355505b6001600288020188555050505b50505050505050565b612c7b81611cc3565b82525050565b60006060820190508181036000830152612c9b8186612788565b9050612caa6020830185612c72565b8181036040830152612cbc8184612788565b9050949350505050565b7f50726f7065727479207769746820676976656e20494420646f6573206e6f742060008201527f6578697374000000000000000000000000000000000000000000000000000000602082015250565b6000612d22602583612326565b9150612d2d82612cc6565b604082019050919050565b60006020820190508181036000830152612d5181612d15565b9050919050565b612d6181611d0b565b82525050565b6000602082019050612d7c6000830184612d58565b92915050565b7f4e487b7100000000000000000000000000000000000000000000000000000000600052601160045260246000fd5b6000612dbc82611b6b565b91507fffffffffffffffffffffffffffffffffffffffffffffffffffffffffffffffff8203612dee57612ded612d82565b5b600182019050919050565b7f4e487b7100000000000000000000000000000000000000000000000000000000600052603260045260246000fd5b60006040820190508181036000830152612e428185612788565b90508181036020830152612e568184612788565b90509392505050565b7f4f776e657220616c726561647920657869737473000000000000000000000000600082015250565b6000612e95601483612326565b9150612ea082612e5f565b602082019050919050565b60006020820190508181036000830152612ec481612e88565b905091905056fea26469706673582212204682f6da4ebde95a28c8fafaf62544f82a2d0587963197a32eb789ae9f90fa3364736f6c63430008110033",
  "linkReferences": {},
  "deployedLinkReferences": {}
}